:100000000C9432000C9400000C9400000C9400003E
:100010000C9400000C9400000C9400000C94000060
:100020000C9400000C945F000C9400000C940000F1
:100030000C9400000C9400000C9400000C94000040
:100040000C9400000C9400000C9400000C94000030
:100050000C940000000000000100000008000400F3
:1000600054000000F894EE27ECBBF1E0FBBFEBBFBF
:10007000E5BF8DE0A2E0BB27ED938A95E9F780E02C
:1000800094E0A0E6ED930197E9F7ECE5F0E08591C7
:100090009591009761F0A591B59105901590BF01DC
:1000A000F00105900D920197E1F7FB01F0CFEFE52C
:1000B000EDBFE4E0EEBFC0E6D1E00C948D00EA9322
:1000C000FA93EFB7EA93E6E0E2BFF20131962F012F
:1000D000EAEFF0E0E415F505D9F444245524E1E015
:1000E000F0E0E615F705A1F4EA15FB0521F4959477
:1000F00087943FD00DC0E0E8F0E0E815F90529F459
:1001000038D0E1E0F0E05F0103C033D0880C991CE7
:10011000E991EFBFF991E9911895E0E0EABBEBBBFB
:10012000EFEFE7BBE0E0E8BBE3E0E3BFE6E0E2BF20
:10013000E0E0ECBFE1E0E9BFE0E0E5BFE4BF7894D8
:10014000E1E0F0E0EA15FB0519F4E8B3E03009F06E
:1001500009C0E0E0E8BB66247724AA24BB24E1E0E0
:10016000F0E04F01C89B03C0E1E0F0E03F01E8CFC1
:10017000FFCFE8B3E821E8BBE8B3E829E8BB08957E
:00000001FF
