:0C0000000C943D000C9400000C940000D7
:10000C000C9400000C9400000C9400000C94000064
:10001C000C9400000C9400000C946A000C940000EA
:10002C000C9400000C9400000C9400000C94000044
:10003C000C9400000C9400000C9400000C94000034
:10004C000C9400000C940000000000000000320032
:10005C00010009000A00060005000100020054001E
:10006C00080004005600070060015E000000F894D0
:10007C00EE27ECBBF1E0FBBFEBBFE5BF8DE0A2E0F0
:10008C00BB27ED938A95E9F780E094E0A0E6ED9329
:10009C000197E9F7E6E6F0E085919591009761F01C
:1000AC00A591B59105901590BF01F00105900D92A9
:1000BC000197E1F7FB01F0CFEFE5EDBFE4E0EEBF18
:1000CC00C0E6D1E00C94D200AA93BA93EA93FA93C7
:1000DC00EFB7EA93ECE0E2BFA0916E01B0916F0133
:1000EC00119709F052C0E0916801F0916901CE16A8
:1000FC00DF060CF447C0F201A0E6B1E0EE0FFF1FE3
:10010C00AE0FBF1FEC91EBBBE3E0F0E04E165F06C9
:10011C0024F4F20131962F0102C044245524A091FD
:10012C007101AA23BAF4E0916C01F0916D01A091D8
:10013C006801B0916901EA17FB0744F4A8E6B1E045
:10014C00ED91FD913197FE93EE9303C0E1E0F0E069
:10015C0053D016C056D0A0916801B0916901AE176A
:10016C00BF0744F4A8E6B1E0ED91FD913196FE9302
:10017C00EE9306C04BD0E0E0E0936E01E0936F018C
:10018C00CC24DD24F60131966F01E991EFBFF99192
:10019C00E991B991A9911895EFEFEABBE0E0EBBBBF
:1001AC00E4BBE3BBE0937201E093730132D02ED039
:1001BC00EEE5F1E0E0936A01F0936B01E2EAFEEF09
:1001CC00E0936C01F0936D012BD0E1E0E3BFEFEF16
:1001DC00E2BFE0E0ECBFE1E0E9BF78949A9906C099
:1001EC00A0916E01B0916F01109709F003C018D067
:1001FC000DD00FD0F3CFFFCFE0937001F0937101CE
:10020C000895E0916A01F0916B010895EFEFFFEF13
:10021C00F3CFE1E0F0E0E0936E01F0936F0108950D
:10022C00F0DFE0936801F0936901CC24DD2408959C
:00000001FF
