:0C0000000C9435000C9400000C940000DF
:10000C000C9400000C9400000C9400000C94000064
:10001C000C9400000C9400000C9400000C94000054
:10002C000C9400000C9400000C9400000C94000044
:10003C000C9400000C9400000C9400000C94000034
:10004C000C9400000C94000048656C6C6F20576F8A
:10005C007264000080C00200600160000000F8942F
:10006C00EE27ECBBF1E0FBBFEBBFE5BF8DE0A2E000
:10007C00BB27ED938A95E9F780E094E0A0E6ED9339
:10008C000197E9F7E2E6F0E085919591009761F030
:10009C00A591B59105901590BF01F00105900D92B9
:1000AC000197E1F7FB01F0CFEFE5EDBFE4E0EEBF28
:1000BC00C0E6D1E00C946200E0E0EABBEBBBE7BB2E
:1000CC00E8BBE4BBE5BBE1BBE2BBE3BFE2BFECBF1B
:1000DC00EFBDEEBDEDBDECBDE7BDE6BDEBBDEABDD4
:1000EC00E9BDE8BDE9BFE5BFE4BFA4E168D0E0E04D
:1000FC00EA93A0E025D0A4E5B0E04ED0F8CFFFCF36
:10010C00AA93EBB3EF70AE2FE881E07FEA2BEBBB49
:10011C008DE08A95F1F7DA9A8DE08A95F1F7DA9805
:10012C008DE08A95F1F774C0AA93A881E9DFE88184
:10013C00E295E883A881E4DF85E88A95F1F768C049
:10014C00AA93E881F0E0E05AFE4FE081A981AE0F5E
:10015C00EBDF5980488022960895A2E05BD0ACE09A
:10016C00E3DFA1E057D0E0E04E2E5E2E0895AA9377
:10017C00A881AA3011F0571448F0E0E0EA934394B8
:10018C00A42DDEDFA881AA3009F442C05394D89A7A
:10019C00A881CADFD8983CC0BA93AA931A93E98174
:1001AC00FA813196E983FA833197E4911E2FE0307E
:1001BC0019F0A12FDCDFF3CF188123960895AA93B1
:1001CC00EAB3E06FEABBD29AD09AD19ADA98D8986F
:1001DC00D9987880E881E058E0936201E881E05496
:1001EC00E0936301A4E1B0E00E941C0118D017D089
:1001FC0016D0A0E285DF88EC90E00197F1F7A8E239
:10020C0093DFA4E091DFA5E88FDFA6E08DDFA5DF0B
:10021C002196089589DFA3E0B0E00C941C01A0E3C3
:10022C006FDF88EC90E00197F1F70895109639F0A4
:10023C0080ED97E00197F1F7A8951197C9F708950C
:00000001FF
