:020000000C945E
:100002002A000C9400000C9400000C9400000C9444
:1000120000000C9400000C9400000C9400000C945E
:1000220000000C9445000C9400000C9400000C9409
:1000320000000C9400000C9400000C9400000C943E
:1000420000000C9400000C9400000C9400000C942E
:100052000000F894EE27ECBBF1E0FBBFEBBFE5BF7D
:100062008DE0A2E0BB27ED938A95E9F780E094E06A
:10007200A0E6ED930197E9F7EFE5EDBFE4E0EEBF0F
:10008200C0E6D1E00C946F00AA93BA93EA93FA9374
:10009200EFB7EA93E6E1E2BFA0E6B1E0ED91FD91B0
:1000A2003196FE93EE93A0916001B0916101599750
:1000B20071F4A0E0D899A1E0E1E0EA2711F4D89820
:1000C20001C0D89AE0E0E0936001E0936101E99118
:1000D200EFBFF991E991B991A9911895E1E0EABBD5
:1000E200E0E0EBBBE5E0E3BFE6E1E2BFE0E0ECBF6E
:1000F200E1E0E9BFE0E0E5BFE4BF7894FFCFFFCFE6
:00000001FF
